:100000000EC01DC01CC01BC01AC019C018C017C02C
:1000100016C015C014C013C012C011C010C01124E6
:100020001FBECFE5D2E0DEBFCDBF10E0A0E6B0E05E
:1000300001C01D92A336B107E1F702D07FC0E0CF27
:100040008FEF80936100109260001092620080E652
:1000500090E061E070E06FD088E893E1E0E9F1E0E2
:100060003197F1F70197D1F7109261008FEF8093EC
:1000700060001092620080E690E061E070E05BD08A
:1000800088E893E1E0E9F1E03197F1F70197D1F7E2
:1000900010926100109260008FEF8093620080E602
:1000A00090E061E070E047D088E893E1E0E9F1E0BA
:1000B0003197F1F70197D1F7C3CFFC0187B3842BB8
:1000C00087BB88B3242F2095282398B3942B3FB760
:1000D000F89412C0819148E098BB000000C087FFEF
:1000E00028BB880F000000C000C000C028BB00C0B3
:1000F0004A9591F7615070406115710559F73FBFFE
:10010000089544E0DADF0895660F771F660F771FC2
:1001100044E0D3DF80E491E00197F1F708959B017B
:10012000220F331F260F371FB901C7DF88EC90E07D
:100130000197F1F7089544E0F2DF0895F894FFCFB6
:00000001FF
