:100000000AC019C018C017C016C015C014C013C04C
:1000100012C011C010C011271FBFCFE5D0E0DEBF56
:10002000CDBF10E0A0E4B0E001C01D93A434B1073F
:10003000E1F702D02FC1E4CFCF93DF9388ED8CBFDF
:1000400016BFC0E4D0E0CE5FDF4FE0E8A1E4B0E04F
:10005000EC93A0E4B0E01C931883E3E4F0E0108399
:100060008A2F9B2F61E070E0ABD08FEF94E3ACE080
:1000700081509040A040E1F700C00000A1E4B0E052
:100080001C9380E8E0E4F0E080831883A3E4B0E010
:100090001C938E2F9F2F61E070E092D08FEF94E33E
:1000A000ACE081509040A040E1F700C00000A1E426
:1000B000B0E01C93E0E4F0E01083F0E8F883A3E400
:1000C000B0E01C9380E490E061E070E079D08FEFC5
:1000D00094E3ACE081509040A040E1F700C0000004
:1000E000A1E4B0E01C93E0E4F0E010831883E0E8C2
:1000F000A3E4B0E0EC9380E490E061E070E060D0D5
:100100008FEF94E3ACE081509040A040E1F700C055
:1001100000009BCF262F372F220F331F620F731F34
:100120000C9A22B12F7E32B130614FB7F89461172B
:10013000710781F0E82FF92F819198E032B987FF9C
:1001400022B9880F000000C022B99A95B9F7615012
:10015000704091F74FBF85E88A95F1F70000089548
:10016000DF93CF93CDB7DEB7262F372F220F331F64
:10017000620F731F21B1242B21B922B1342F309586
:10018000232332B1432B3FB7F8946117710781F0F5
:10019000E82FF92F819198E042B987FF22B9880FA3
:1001A000000000C022B99A95B9F76150704091F7EC
:1001B0003FBF85E88A95F1F70000CF91DF91089560
:1001C000660F771F660F771F0C9A22B12F7E32B110
:1001D00030614FB7F8946117710781F0E82FF92F5C
:1001E000819198E032B987FF22B9880F000000C0E2
:1001F00022B99A95B9F76150704091F74FBF85EDDC
:100200008A95F1F7000008950C9A42B14F7E32B101
:100210003061EFB7F8946117710791F0A82FB92FEB
:100220002D918A2F9B2F58E032B927FF42B9220F18
:10023000000000C042B95A95B9F76150704071F79B
:10024000EFBF0895DF93CF93CDB7DEB721B1242B55
:1002500021B922B1342F3095322322B1422BEFB78E
:10026000F8946117710791F0A82FB92F2D918A2F5B
:100270009B2F58E042B927FF32B9220F000000C07F
:1002800032B95A95B9F76150704071F7EFBFCF910D
:08029000DF910895F894FFCFFF
:00000001FF
